S00F000030372D756172742E73726563C5
S11300000C9434000C9451000C9451000C94510045
S11300100C9451000C9451000C9451000C94510018
S11300200C9451000C9451000C9451000C94510008
S11300300C9451000C944D010C9451000C945100FB
S11300400C9451000C9451000C9436020C946402EC
S11300500C9451000C9462010C9451000C945100C6
S11300600C9451000C94510011241FBECFEFD8E022
S1130070DEBFCDBF11E0A0E0B1E0E4E0F6E002C0F5
S113008005900D92A03BB107D9F722E0A0EBB1E0B7
S113009001C01D92A533B207E1F70E9414010C942C
S11300A000030C940000299A85E08A95F1F700007A
S11300B029980895CF93C82F662311F0289A01C078
S11300C02898549A559A569A579A5F985E985D98CC
S11300D05C98CC230CF45F9AC6FD5E9AC5FD5D9ACC
S11300E0C4FD5C9A0E9453005F985E985D985C988A
S11300F0C3FD5F9AC2FD5E9AC1FD5D9AC0FD5C9A24
S11301000E9453005C9A5D9A5E9A5F9A87EB9BE02B
S11301100197F1F700C00000CF91089560E00E94BC
S11301205A000895611104C080580E948E000895F9
S113013080540E948E00089581E00E948E000895EC
S113014061E00E945A000895CF93DF93EC01219659
S1130150FC018081882329F00E94A00089918111EB
S1130160FBCFDF91CF910895CF93C82F209A559A52
S1130170219A549A559A569A579A8FEF99EF019764
S1130180F1F700C000005D9A5C9A0E9453008FE171
S11301909EE40197F1F700C000000E9453008FEF26
S11301A090E00197F1F700C000000E9453008FEF28
S11301B090E00197F1F700C000005C980E945300A2
S11301C08FEF90E00197F1F700C0000088E20E94F1
S11301D08E0088E00E948E000E949C0086E00E94AF
S11301E08E008C2F0E948E00CF91089520E030E085
S11301F060E070E0E1E0F0E0AF01022E02C0440FE5
S1130200551F0A94E2F748235923452B11F06F5FD9
S11302107F4F2F5F3F4F2032310571F7CB0121E033
S113022082278170992708958CE00E94B40060E0D1
S113023081E00E94920080E091E00E94A40061E0CD
S113024083E00E94920087E091E00E94A400ECE722
S1130250F0E08081806480838081807F8083EAE70E
S1130260F0E08081806880838081886080838081E1
S113027087608083E1E8F0E080818B7F80838081E8
S113028083608083EFE6F0E080818160808387E68D
S113029090E00E948E027894FFCF1F920F920FB6C7
S11302A00F9211248F93EF93FF93EAE7F0E080819C
S11302B080648083FF91EF918F910F900FBE0F9018
S11302C01F9018951F920F920FB60F9211240F933F
S11302D01F932F933F934F935F936F937F938F93CA
S11302E09F93AF93BF93EF93FF93CF93DF9300D08C
S11302F000D0CDB7DEB780E290E29A8389839C83F5
S11303008B8300917800109179004AE0BE016F5F01
S11303107F4FC8010E94CB0260E088E00E949200F7
S11303208CE091E00E94A40060E088E00E949200CA
S1130330CE0101960E94A400053F110559F138F43D
S11303400115110569F005361105B9F049C00239E6
S113035081E0180761F10A3882E01807A9F140C06A
S113036081E191E00E94BC02CE0101960E94BC0290
S11303708CE291E00E94BC0233C08FE291E00E94C3
S1130380BC02CE0101960E94BC028CE291E00E9464
S1130390BC0226C087E491E00E94BC02CE01019613
S11303A00E94BC028CE291E00E94BC0219C081E66A
S11303B091E00E94BC02CE0101960E94BC028CE234
S11303C091E00E94BC020CC08BE791E00E94BC0249
S11303D0CE0101960E94BC028CE291E00E94BC0214
S11303E0C8010E94F600892B49F061E087E00E9471
S11303F0920087E991E00E94A40008C061E087E0D0
S11304000E94920083EA91E00E94A40040E1BE01B0
S11304106F5F7F4FC8010E94CB0260E08DE00E94B5
S113042092008CE091E00E94A40060E08DE00E94C4
S11304309200CE0101960E94A4000F900F900F909D
S11304400F90DF91CF91FF91EF91BF91AF919F9169
S11304508F917F916F915F914F913F912F911F9158
S11304600F910F900FBE0F901F9018951F920F922F
S11304700FB60F9211242F938F939F93EF93FF93B3
S11304808091C0002091C6008C71E091B201EF5FB1
S1130490EF739091B101E91739F0E093B201F0E004
S11304A0EB54FE4F208301C082E09091B001892B70
S11304B08093B001FF91EF919F918F912F910F90B5
S11304C00FBE0F901F9018951F920F920FB60F92A8
S11304D011248F939F93EF93FF939091B401809194
S11304E0B301981769F0E091B301EF5FEF73E09304
S11304F0B301F0E0EB50FE4F80818093C60005C04D
S1130500E1ECF0E080818F7D8083FF91EF919F91FA
S11305108F910F900FBE0F901F9018951092B401F9
S11305201092B3011092B2011092B10199231CF4FC
S113053022E02093C00090789093C5008093C4007B
S113054088E98093C10086E08093C20008952091D9
S1130550B4012F5F2F739091B3012917E1F3E22FB8
S1130560F0E0EB50FE4F80832093B401E1ECF0E027
S11305708081806280830895CF93DF93EC0188812A
S1130580882331F021960E94A70289918111FBCF23
S1130590DF91CF910895BB274A3031F4992322F497
S11305A0BDE2909581959F4F0C94D702BB27FB0128
S11305B05527AA27880F991FAA1FA41710F0A41B58
S11305C083955051B9F7A05DAA3308F0A95DA193B2
S11305D0009779F7B111B1931192CB010C94F00209
S11305E0DC01FC01672F71917723E1F7329704C096
S11305F07C916D9370836291AE17BF07C8F3089521
S1070600F894FFCF98
S113060476616C75653A006B65793A002020202088
S113061400526967687420627574746F6E20776120
S11306247320707265737365643A20000D0A005573
S11306347020627574746F6E2077617320707265B4
S1130644737365643A2000446F776E206275747422
S11306546F6E2077617320707265737365643A20DA
S1130664004C65667420627574746F6E20776173D0
S113067420707265737365643A200053656C656316
S11306847420627574746F6E207761732070726560
S1130694737365643A20004576656E20506172690F
S11306A47479004F64642050617269747920000085
S9030000FC
