S0110000446F6F725F4C6F636B2E7372656397
S11300000C9434000C9451000C9451000C94510045
S11300100C9451000C9451000C9451000C94510018
S11300200C9451000C9451000C9451000C94510008
S11300300C9451000C9451000C9451000C945100F8
S11300400C9451000C9451000C9483030C94B10350
S11300500C9451000C9451000C9451000C945100D8
S11300600C9451000C94510011241FBECFEFD8E022
S1130070DEBFCDBF11E0A0E0B1E0EAEBF7E002C0E3
S113008005900D92AE37B107D9F722E0AEE7B1E0A3
S113009001C01D92A730B207E1F70E94E5020C945B
S11300A0DB030C9400005A9A85E08A95F1F700006E
S11300B05A980895CF93C82F662311F05B9A01C014
S11300C05B98549A559A569A579A5F985E985D9899
S11300D05C98CC230CF45F9AC6FD5E9AC5FD5D9ACC
S11300E0C4FD5C9A0E9453005F985E985D985C988A
S11300F0C3FD5F9AC2FD5E9AC1FD5D9AC0FD5C9A24
S11301000E9453005C9A5D9A5E9A5F9A87EB9BE02B
S11301100197F1F700C00000CF91089560E00E94BC
S11301205A000895611104C080580E948E000895F9
S113013080540E948E00089581E00E948E000895EC
S113014061E00E945A000895CF93DF93EC01219659
S1130150FC018081882329F00E94A00089918111EB
S1130160FBCFDF91CF910895CF93C82F539A559A1F
S1130170529A549A559A569A579A8FEF99EF019733
S1130180F1F700C000005D9A5C9A0E9453008FE171
S11301909EE40197F1F700C000000E9453008FEF26
S11301A090E00197F1F700C000000E9453008FEF28
S11301B090E00197F1F700C000005C980E945300A2
S11301C08FEF90E00197F1F700C0000088E20E94F1
S11301D08E0088E00E948E000E949C0086E00E94AF
S11301E08E008C2F0E948E00CF9108950F931F9341
S11301F0CF93DF93FC01409613C0419151912D910F
S11302003D914217530729F40F5F1F4F0430110526
S113021071F0EC17FD0789F7FE01C817D90751F0F3
S1130220A62FB72FEF01289600E010E0E6CF81E07B
S113023090E002C080E090E0DF91CF911F910F9198
S11302400895519A509A5998589887B1806787B9F8
S113025088B1806788B914B885B18F6085B908956D
S113026088B1806788B985B1449883B18F7095B19E
S1130270891749F098B1892B089588B1806788B9A6
S113028085B180E0089588B1806788B985B14598C3
S113029083B18F7095B18913EDCF88B1806788B928
S11302A085B1469883B18F7095B1891731F3E2CF48
S11302B08E36F9F461E080917E010E94920080E123
S11302C091E00E94A40080917E0190917F010196AB
S11302D08430910539F090937F0180937E0181E011
S11302E090E0089510927F0110927E0181E090E0E9
S11302F008958E35F9F461E080917E010E949200A8
S113030080E191E00E94A40080917E0190917F01A0
S113031001968430910539F090937F0180937E019A
S113032082E090E0089510927F0110927E0182E0B5
S113033090E008958E33F9F461E080917E010E948B
S1130340920080E191E00E94A40080917E0190914E
S11303507F0101968430910539F090937F01809359
S11303607E0183E090E0089510927F0110927E0157
S113037083E090E008958D36E9F461E080917E0198
S11303800E94920080E191E00E94A40080917E018D
S113039090917F0101968430910539F090937F010B
S11303A080937E0184E090E0089510927F01109282
S11303B07E0108958D35F9F461E080917E010E94FB
S11303C0920080E191E00E94A40080917E019091CE
S11303D07F0101968430910539F090937F018093D9
S11303E07E0185E090E0089510927F0110927E01D5
S11303F085E090E008958D33F9F461E080917E0109
S11304000E94920080E191E00E94A40080917E010C
S113041090917F0101968430910539F090937F018A
S113042080937E0186E090E0089510927F011092FF
S11304307E0186E090E008958B36F9F461E08091C6
S11304407E010E94920080E191E00E94A4008091CC
S11304507E0190917F0101968430910539F090934B
S11304607F0180937E0187E090E0089510927F01E0
S113047010927E0187E090E008958B35F9F461E0F5
S113048080917E010E94920080E191E00E94A4008C
S113049080917E0190917F0101968430910539F01D
S11304A090937F0180937E0188E090E008951092FC
S11304B07F0110927E0188E090E008958B33F9F477
S11304C061E080917E010E94920080E191E00E94AF
S11304D0A40080917E0190917F0101968430910562
S11304E039F090937F0180937E0189E090E0089534
S11304F010927F0110927E0189E090E00895873682
S1130500F9F461E080917E010E94920080E191E023
S11305100E94A40080917E0190917F010196843015
S1130520910539F090937F0180937E018AE090E0F9
S1130530089510927F0110927E018AE090E0089560
S11305408735F9F461E080917E010E94920080E198
S113055091E00E94A40080917E0190917F01019618
S11305608430910539F090937F0180937E018BE074
S113057090E0089510927F0110927E018BE090E04C
S113058008958733F9F461E080917E010E9492001E
S113059080E191E00E94A40080917E0190917F010E
S11305A001968430910539F090937F0180937E0108
S11305B08CE090E0089510927F0110927E018CE00F
S11305C090E008958FE090E00895CF93DF93CDB746
S11305D0DEB768970FB6F894DEBF0FBECDBF8CE0D0
S11305E00E94B40080E40E948E0080E80E948E0085
S11305F060E080E00E94920082E191E00E94A40009
S11306000E94210180E1E0E0F1E0DE011196019019
S11306100D928A95E1F78E010F5F1F4FC02ED12EE8
S11306206894EE24E1F80E9430010E9458012FEFF3
S113063031EE44E0215030404040E1F700C000007A
S11306402091800130918101F901EE0FFF1FE00F2D
S1130650F11F918B808B0F9731F32F5F3F4F3093B6
S113066081012093800124303105E9F61092810143
S11306701092800161E080E00E94920044E050E02A
S1130680BE016F5E7F4F8C2D9D2D0E94F600892B3D
S1130690F1F082E291E00E94A4008BB1FF24F39474
S11306A08F258BB98FEF93ED20E38150904020404C
S11306B0E1F700C0000061E080E00E9492008FE258
S11306C091E00E94A4008BB1F826FBB8ACCF86E57C
S11306D091E00E94A4008BB18E258BB93FEF43EDCE
S11306E080E3315040408040E1F700C0000061E009
S11306F080E00E9492008FE291E00E94A4008BB1FE
S11307008E258BB990CF1F920F920FB60F921124A2
S11307102F938F939F93EF93FF938091C000209129
S1130720C6008C71E0918401EF5FEF7390918301B7
S1130730E91739F0E0938401F0E0E957FE4F208394
S113074001C082E090918201892B80938201FF9104
S1130750EF919F918F912F910F900FBE0F901F904B
S113076018951F920F920FB60F9211248F939F9397
S1130770EF93FF939091860180918501981769F01A
S1130780E0918501EF5FEF73E0938501F0E0E953B9
S1130790FE4F80818093C60005C0E1ECF0E08081CB
S11307A08F7D8083FF91EF919F918F910F900FBE6A
S10D07B00F901F901895F894FFCFE6
S11307BA0100020003000400050006000700080007
S11307CA2A00456E7465722070617373776F726460
S11307DA3A00436F727265637420636F6465002024
S11307EA20202020202020202020202020202020FB
S11307FA20202020202020202020202020202020EB
S113080A202020202000496E63636F726563742080
S113081A636F64652C2074727920616761696E2044
S111082A696E203130207365636F6E64730055
S9030000FC
