S0110000446F6F725F4C6F636B2E7372656397
S11300000C9434000C9451000C9451000C94510045
S11300100C9451000C9451000C9451000C94510018
S11300200C9451000C9451000C9451000C94510008
S11300300C9451000C9451000C9451000C945100F8
S11300400C94E4020C9451000C9407040C943504B1
S11300500C9451000C94F9020C9451000C9451002E
S11300600C9451000C94510011241FBECFEFD8E022
S1130070DEBFCDBF12E0A0E0B1E0ECE3F9E002C0E6
S113008005900D92A031B107D9F722E0A0E1B2E0CA
S113009001C01D92AD39B207E1F70E94AD020C9484
S11300A09C040C94000060E088E290E00E94F2015D
S11300B02FEF81EE94E0215080409040E1F700C0A2
S11300C0000060E088E290E00E94E501089561E0AC
S11300D088E290E00E94F2012FEF85EA9EE0215031
S11300E080409040E1F700C0000061E088E290E0C9
S11300F00E94E501089561E08BE290E00E94FE0118
S113010085E08A95F1F7000061E070E080E090E01E
S11301100E94490288E091E00E945B0261E08BE268
S113012090E00E94FE01089560E08BE290E00E945E
S1130130FE0185E08A95F1F7000061E070E080E05F
S113014090E00E94490288E091E00E945B0260E036
S11301508BE290E00E94FE01089588B1806788B91F
S113016085B1449883B18F7095B1891749F098B1DE
S1130170892B089588B1806788B985B180E0089596
S113018088B1806788B985B1459883B18F7095B17E
S11301908913EDCF88B1806788B985B1469883B15A
S11301A08F7095B1891731F3E2CF962F8E3661F4B3
S11301B061E070E0892F90E00E9449028FE291E0B3
S11301C00E945B0281E008958E3561F461E070E085
S11301D0892F90E00E9449028FE291E00E945B0225
S11301E082E008958E3361F461E070E0892F90E03D
S11301F00E9449028FE291E00E945B0283E008952D
S11302008D3661F461E070E0892F90E00E9449022C
S11302108FE291E00E945B0284E008958D3561F4E1
S113022061E070E0892F90E00E9449028FE291E042
S11302300E945B0285E008958D3361F461E070E013
S1130240892F90E00E9449028FE291E00E945B02B4
S113025086E008958B3661F461E070E0892F90E0C8
S11302600E9449028FE291E00E945B0287E00895B8
S11302708B3561F461E070E0892F90E00E944902BF
S11302808FE291E00E945B0288E008958B3361F471
S113029061E070E0892F90E00E9449028FE291E0D2
S11302A00E945B0289E00895873661F461E070E0A2
S11302B0892F90E00E9449028FE291E00E945B0244
S11302C08AE00895873561F461E070E0892F90E059
S11302D00E9449028FE291E00E945B028BE0089544
S11302E0873361F461E070E0892F90E00E94490255
S11302F08FE291E00E945B028CE008958FE0089504
S1130300CF93DF93DC01262F372FFC013496C62FC1
S1130310D72F60E070E05D914991541305C06F5F81
S11303207F4F64307105B1F0AE17BF07A1F708968F
S113033060E070E05191D9014D919D01541305C0C5
S11303406F5F7F4F6430710539F0E817F90791F753
S113035080E003C081E001C081E0DF91CF91089586
S113036061E08AE290E00E94D90160E08AE290E0D4
S11303700E94D90160E087E290E00E94D90160E028
S113038088E290E00E94E50161E087E290E00E944B
S1130390D90161E088E290E00E94E50187B18067BD
S11303A087B988B1806788B914B885B18F6085B979
S11303B00895FC01408121E030E002C0220F331F88
S11303C06A95E2F7242B20830895FC01908121E0B3
S11303D030E002C0220F331F6A95E2F720952923EB
S11303E020830895FC01408121E030E002C0220F07
S11303F0331F6A95E2F7242B20830895FC01408182
S113040021E030E002C0220F331F6A95E2F724276F
S1130410208308955A9A85E08A95F1F700005A9846
S11304200895CF93C82F662311F05B9A01C05B989F
S1130430549A559A569A579A5F985E985D985C9824
S1130440CC230CF45F9AC6FD5E9AC5FD5D9AC4FD8B
S11304505C9A0E940A025F985E985D985C98C3FD5E
S11304605F9AC2FD5E9AC1FD5D9AC0FD5C9A0E94CE
S11304700A025C9A5D9A5E9A5F9A87EB9BE0019709
S1130480F1F700C00000CF91089560E00E941102CE
S11304900895611104C080580E9445020895805453
S11304A00E944502089581E00E944502089561E09A
S11304B00E9411020895CF93DF93EC012196FC0171
S11304C08081882329F00E94570289918111FBCFF2
S11304D0DF91CF910895CF93C82F539A559A529A8A
S11304E0549A559A569A579A8FEF99EF0197F1F7C4
S11304F000C000005D9A5C9A0E940A028FE19EE4AB
S11305000197F1F700C000000E940A028FEF90E00B
S11305100197F1F700C000000E940A028FEF90E0FB
S11305200197F1F700C000005C980E940A028FEF67
S113053090E00197F1F700C0000088E20E944502B4
S113054088E00E9445020E94530286E00E94450210
S11305508C2F0E944502CF910895ECE7F0E0808152
S1130560806480838081807F8083EAE7F0E08081FB
S113057080688083808188608083808187608083B5
S11305808CE00E946B0280E40E94450280E80E9495
S1130590450260E080E00E94490281E391E00E940C
S11305A05B020E94B001EEE6F0E08081816080830E
S11305B085B58D7F85BD85B5856085BD87E690E071
S11305C00E945F047894FFCF1F920F920FB60F9290
S11305D011248F93EF93FF93EAE7F0E08081806426
S11305E08083FF91EF918F910F900FBE0F901F901A
S11305F018951F920F920FB60F9211242F933F93C9
S11306004F935F936F937F938F939F93AF93BF9316
S1130610CF93EF93FF938091170291E0980F9093FB
S1130620170220911602243008F06CC0903308F0B1
S113063095C0C09115020E94AD006C2F0E94D50098
S1130640809314022FEF81EE94E02150804090407B
S1130650E1F700C000008091150290911402E82F88
S1130660F0E0E05FFD4F90839F3009F4BEC08F5FE0
S1130670843019F080931502B8C01092150261E01D
S113068080E00E94490260E172E080E091E00E9413
S113069080018823D1F081E491E00E948D0484E5F7
S11306A091E00E945B022FEF83EC99E0215080409F
S11306B09040E1F700C000000E9494000E945300A3
S11306C0109217021092160290C085E691E00E94E3
S11306D08D048AE791E00E945B022FEF83EC99E09E
S11306E0215080409040E1F700C000000E947B0050
S11306F00E94670010921702809116028F5F809308
S1130700160273C02F5F209316021092170261E045
S113071080E00E94490284E891E00E945B0280919B
S11307201602803C49F461E080E00E94490286E9B7
S113073091E00E945B0259C0883E09F056C08DEAE0
S113074091E00E948D041092160261E080E00E9404
S1130750490287E191E00E945B0247C021ED280F26
S1130760253370F461E080E00E94490286EC91E058
S11307700E945B02809117028F5F8093170235C03D
S11307802CE9280F253470F461E080E00E944902CE
S113079088ED91E00E945B02809117028F5F809345
S11307A0170223C0895A863470F461E080E00E9405
S11307B0490289EE91E00E945B02809117028F5FEB
S11307C08093170212C0903F80F08BEF91E00E945B
S11307D08D0461E080E00E94490287E191E00E947B
S11307E05B021092170210921502FF91EF91CF91C4
S11307F0BF91AF919F918F917F916F915F914F9135
S11308003F912F910F900FBE0F901F9018951F923C
S11308100F920FB60F9211242F938F939F93EF9300
S1130820FF938091C0002091C6008C71E0911A0260
S1130830EF5FEF7390911902E91739F0E0931A0210
S1130840F0E0E35EFD4F208301C082E09091180246
S1130850892B80931802FF91EF919F918F912F9193
S11308600F900FBE0F901F9018951F920F920FB606
S11308700F9211248F939F93EF93FF9390911C02F7
S113088080911B02981769F0E0911B02EF5FEF73F0
S1130890E0931B02F0E0E35AFD4F80818093C60091
S11308A005C0E1ECF0E080818F7D8083FF91EF91C2
S11308B09F918F910F900FBE0F901F9018951092DB
S11308C01C0210921B0210921A0210921902992310
S11308D01CF422E02093C00090789093C50080938C
S11308E0C40088E98093C10086E08093C200089523
S11308F020911C022F5F2F7390911B022917E1F3A3
S1130900E22FF0E0E35AFD4F808320931C02E1ECD8
S1130910F0E08081806280830895CF93DF93EC01BF
S11309208881882331F021960E947804899181116D
S10F0930FBCFDF91CF910895F894FFCF26
S113093C0102030405060708202020202020202083
S113094C2020202020202020202020202020202097
S113095C2020202020202020202020202020002A9D
S113096C00456E7465722070617373776F72643AAC
S113097C00436F72726563742070617373776F7266
S113098C640A0D00436F7272656374207061737333
S113099C776F726400496E636F7272656374207052
S11309AC617373776F72640A0D00496E636F7272B0
S11309BC65637400546F6F206D7563682061747483
S11309CC656D70747300596F75206D617920656E57
S11309DC7465722074686520636F64650045786380
S11309EC656564656420342074696D6573206C6975
S11309FC6D69740A0D0054696D65206C696D6974B8
S1130A0C20202020202020006578636565646564BF
S1130A1C2E20202020202020005472792061676130
S1130A2C696E2E202020202020200054696D652022
S1130A3C6C696D6974206973206F7665720A0D0098
S9030000FC
