S00B00004C45442E7372656344
S11300000C9434000C943E000C943E000C943E007E
S11300100C943E000C943E000C943E000C943E0064
S11300200C943E000C943E000C943E000C943E0054
S11300300C943E000C943E000C943E000C943E0044
S11300400C943E000C943E000C943E000C943E0034
S11300500C943E000C943E000C943E000C943E0024
S11300600C943E000C943E0011241FBECFEFD8E048
S1130070DEBFCDBF0E9440000C94C7000C9400006A
S1130080219A259A389A3A9A3D9A29982D98409817
S11300904298459842E080E221E094E035B134276B
S11300A035B93FEF53EC69E0315050406040E1F71F
S11300B000C0000035B1342735B935B1382735B91A
S11300C03FEF53EC69E0315050406040E1F700C02D
S11300D0000035B1382735B938B1322738B93FEF88
S11300E053EC69E0315050406040E1F700C000003B
S11300F038B1322738B938B1392738B93FEF53EC22
S113010069E0315050406040E1F700C0000038B170
S1130110392738B938B1382738B93FEF53EC69E09B
S1130120315050406040E1F700C0000038B138273A
S113013038B938B1392738B93FEF53EC69E0315059
S113014050406040E1F700C0000038B1392738B9A9
S113015038B1322738B93FEF53EC69E031505040A1
S11301606040E1F700C0000038B1322738B935B13A
S1130170382735B93FEF53EC69E0315050406040C7
S1130180E1F700C0000035B1382735B987CFF894BE
S1050190FFCF9B
S9030000FC
