S00F000030332D6770696F2E73726563D6
S11300000C9434000C943E000C943E000C943E007E
S11300100C943E000C943E000C943E000C943E0064
S11300200C943E000C943E000C943E000C943E0054
S11300300C943E000C943E000C943E000C943E0044
S11300400C943E000C943E000C943E000C943E0034
S11300500C943E000C943E000C943E000C943E0024
S11300600C943E000C943E0011241FBECFEFD8E048
S1130070DEBFCDBF0E947D000C94B6000C9400003E
S1130080FC01408121E030E002C0220F331F6A9559
S1130090E2F7242B20830895FC01908121E030E0D5
S11300A002C0220F331F6A95E2F72095292320838B
S11300B00895FC01408121E030E002C0220F331F8B
S11300C06A95E2F7242B20830895FC01408121E006
S11300D030E002C0220F331F6A95E2F72427208301
S11300E00895FC01808190E002C0959587956A95FA
S11300F0E2F7F1E08F278170089565E084E290E0F3
S11301000E94400065E085E290E00E944C0060E0BF
S113011087E290E00E94400060E088E290E00E9464
S1130120590060E08AE290E00E944C0060E08BE2BB
S113013090E00E9459002FEF89E698E12150804019
S11301409040E1F700C0000060E089E290E00E9486
S11301507100882381F365E085E290E00E946500E8
S113016060E088E290E00E946500E5CFF894FFCF5C
S9030000FC
