S00E000030362D6C63642E7372656350
S11300000C9434000C9451000C9451000C94510045
S11300100C9451000C9451000C9451000C94510018
S11300200C9451000C9433010C9451000C94510025
S11300300C9451000C9451000C9451000C945100F8
S11300400C9409020C9451000C9451000C9451002E
S11300500C9451000C9451000C9451000C945100D8
S11300600C9451000C94510011241FBECFEFD8E022
S1130070DEBFCDBF11E0A0E0B1E0ECE2F5E002C0EC
S113008005900D92AC33B107D9F721E0ACE3B1E0B0
S113009001C01D92A334B207E1F70E94FA000C9448
S11300A094020C940000299A85E08A95F1F70000E7
S11300B029980895CF93C82F662311F0289A01C078
S11300C02898549A559A569A579A5F985E985D98CC
S11300D05C98CC230CF45F9AC6FD5E9AC5FD5D9ACC
S11300E0C4FD5C9A0E9453005F985E985D985C988A
S11300F0C3FD5F9AC2FD5E9AC1FD5D9AC0FD5C9A24
S11301000E9453005C9A5D9A5E9A5F9A87EB9BE02B
S11301100197F1F700C00000CF91089560E00E94BC
S11301205A00089561E00E945A000895611104C0C4
S113013080580E948E00089580540E948E00089575
S113014081E00E948E00089561E00E945A000895A3
S1130150CF93DF93EC012196FC018081882329F061
S11301600E94A40089918111FBCFDF91CF91089562
S1130170CF93C82F209A559A219A549A559A569AF1
S1130180579A8FEF99EF0197F1F700C000005D9A3D
S11301905C9A0E9453008FE19EE40197F1F700C03E
S11301A000000E9453008FEF90E00197F1F700C028
S11301B000000E9453008FEF90E00197F1F700C018
S11301C000005C980E9453008FEF90E00197F1F7D4
S11301D000C0000088E20E948E0088E00E948E0029
S11301E00E94A00086E00E948E008C2F0E948E0048
S11301F0CF9108958CE00E94B80080E40E948E00A4
S1130200C4E0D1E004E311E089910E949200C01798
S1130210D107D1F780E80E948E0060E081E00E945F
S1130220960084E391E00E94A80061E08CE00E94C3
S1130230960085E00E94A400E1EBF0E080818760F5
S11302408083E0E7F0E080818160808385B58C7FE6
S113025085BD85B5846085BDEEE6F0E08081816072
S113026080837894FFCF1F920F920FB60F921124C0
S11302702F933F934F935F936F937F938F939F93AA
S1130280AF93BF93EF93FF93CF93DF93CDB7DEB7D5
S11302902A97DEBFCDBF80E290E09A83898380E213
S11302A090E29C838B839E838D8398878F839A8728
S11302B08987809142018F5F863018F480934201D0
S11302C08FC010924201809141018F5F8A3019F0F2
S11302D08093410107C010924101809140018F5FDA
S11302E080934001809140018A3039F484E090E0A9
S11302F0909303018093020116C08C33A1F485E02E
S113030090E0909303018093020110924001809148
S11303103F018F5F80933F0160E084E00E9496007C
S113032080E30E94A40080913F018A3031F481E08F
S113033090E09093010180930001809140014AE094
S1130340BE01695F7F4F889FC00111240E945F0234
S1130350809141014AE0BE016F5F7F4F90E00E94AF
S11303605F02809140014AE0BE016D5F7F4F90E0E3
S11303700E945F0280913F014AE0BE016B5F7F4FA4
S113038090E00E945F0260E0809100010E9496006C
S1130390CE0105960E94A80060E083E00E949600CA
S11303A060E0809102010E949600CE0103960E94B3
S11303B0A80060E086E00E9496008EE20E94A400FD
S11303C060E087E00E949600CE0101960E94A8009A
S11303D060E08CE00E949600CE0107960E94A8007F
S11303E02A960FB6F894DEBF0FBECDBFDF91CF9132
S11303F0FF91EF91BF91AF919F918F917F916F91F9
S11304005F914F913F912F910F900FBE0F901F90CE
S113041018951F920F920FB60F9211242F933F93AA
S11304204F935F936F937F938F939F93AF93BF93F8
S1130430CF93EF93FF9380913E018F5F80933E01B2
S1130440863058F180913D0161E08F5F0E949600F3
S113045080913C010E94A40010923E0180913C01D5
S11304608F5F80933C01843039F480913D018F5F2C
S113047080933D0110923C0180913D01893069F4E3
S113048010923D01C0E061E08C2F0E94960080E252
S11304900E94A400CF5FCA30B1F7FF91EF91CF91D2
S11304A0BF91AF919F918F917F916F915F914F9188
S11304B03F912F910F900FBE0F901F901895BB275F
S11304C04A3031F4992322F4BDE2909581959F4FEF
S11304D00C946B02BB27FB015527AA27880F991F91
S11304E0AA1FA41710F0A41B83955051B9F7A05D5F
S11304F0AA3308F0A95DA193009779F7B111B193DC
S11305001192CB010C948402DC01FC01672F7191E0
S11305107723E1F7329704C07C916D9370836291E5
S10F0520AE17BF07C8F30895F894FFCF8E
S113052C02000500101010101010101018181818D4
S113053C181818181C1C1C1C1C1C1C1C1E1E1E1EF3
S113054C1E1E1E1E1F1F1F1F1F1F1F1F0E1B150EDF
S10F055C1B150E1B30303A30302E3000DE
S9030000FC
