S012000030352D7365676D656E742E737265638D
S11300000C9434000C9449000C9449000C9449005D
S11300100C9449000C9449000C9449000C94490038
S11300200C9449000C9449000C9449000C94490028
S11300300C9449000C9490000C9449000C944900D1
S11300400C9449000C9449000C9449000C94490008
S11300500C9449000C9449000C9449000C944900F8
S11300600C9449000C94490011241FBECFEFD8E032
S1130070DEBFCDBF11E0A0E0B1E0EEE2F3E002C0EC
S113008005900D92A031B107D9F70E9470000C942D
S113009095010C940000FC01408121E030E002C095
S11300A0220F331F6A95E2F7242B20830895FC0165
S11300B0908121E030E002C0220F331F6A95E2F7FD
S11300C02095292320830895FC01408121E030E01C
S11300D002C0220F331F6A95E2F7242B2083089570
S11300E00E94E50060E083E00E94F5000E94680140
S11300F02FEF83ED90E3215080409040E1F700C062
S11301000000E1E8F0E08081897F80838081816064
S11301108083EFE6F0E08081816080837894FFCF74
S11301201F920F920FB60F921124EF92FF921F931A
S11301302F933F934F935F936F937F938F939F93EB
S1130140AF93BF93CF93DF93EF93FF93C0E0D0E0DF
S11301500F2EFAE0EF2EF12CF02DCE01B7010E9404
S11301606D01162F60E00E94F5002FEF80E792E00A
S1130170215080409040E1F700C0000061E0812FF1
S11301800E94F5002FEF80E792E0215080409040DC
S1130190E1F700C000002196CC33D105F1F6FF91C0
S11301A0EF91DF91CF91BF91AF919F918F917F910B
S11301B06F915F914F913F912F911F91FF90EF901D
S11301C00F900FBE0F901F90189564E08AE290E0A4
S11301D00E944B0067E08AE290E00E944B0060E0DE
S11301E084E290E00E944B0008951F93CF93DF9325
S11301F0E82FF0E0EC5FFE4F1081E62FF0E0E050D6
S1130200FF4FD08164E08BE290E00E94570067E0EA
S11302108BE290E00E94570060E085E290E00E944B
S1130220570085E08A95F1F70000C8E010FD06C08C
S113023060E085E290E00E94570005C060E085E23E
S113024090E00E94640085E08A95F1F7000067E081
S11302508BE290E00E94640085E08A95F1F700004B
S113026067E08BE290E00E9457001695C150F1F6CA
S1130270C8E0D0FD06C060E085E290E00E9457002F
S113028005C060E085E290E00E94640085E08A9504
S1130290F1F7000067E08BE290E00E94640085E0E3
S11302A08A95F1F7000067E08BE290E00E94570026
S11302B0D695C150F1F664E08BE290E00E946400B0
S11302C085E08A95F1F70000DF91CF911F910895A1
S11302D060E08AE00E94F500089597FB072E16F46B
S11302E0009407D077FD09D00E94810107FC05D056
S11302F03EF4909581959F4F0895709561957F4F39
S11303000895AA1BBB1B51E107C0AA1FBB1FA61758
S1130310B70710F0A61BB70B881F991F5A95A9F7AA
S111032080959095BC01CD010895F894FFCF0F
S113032E10204080039F250D9949411F0109FF00AC
S9030000FC
