S012000030352D7365676D656E742E737265638D
S11300000C9434000C9449000C9449000C9449005D
S11300100C9449000C9449000C9449000C94490038
S11300200C9449000C9449000C9449000C94490028
S11300300C9449000C9481000C9449000C944900E0
S11300400C9449000C9449000C9449000C94490008
S11300500C9449000C9449000C9449000C944900F8
S11300600C9449000C94490011241FBECFEFD8E032
S1130070DEBFCDBF11E0A0E0B1E0E2EBF2E002C0F0
S113008005900D92AC30B107D9F70E9470000C9422
S113009057010C940000FC01408121E030E002C0D3
S11300A0220F331F6A95E2F7242B20830895FC0165
S11300B0908121E030E002C0220F331F6A95E2F7FD
S11300C02095292320830895FC01408121E030E01C
S11300D002C0220F331F6A95E2F7242B2083089570
S11300E00E94AC00E1E8F0E08081897F8083808118
S11300F081608083EFE6F0E0808181608083789482
S1130100FFCF1F920F920FB60F921124C0E0D0E0E0
S113011006E010E0CE01B8010E942F01009771F4AF
S113012060E080E00E94BC002FE38DE093E021506A
S113013080409040E1F700C000000CC060E00E94E5
S1130140BC002FE38DE093E0215080409040E1F724
S113015000C000002196DECF64E08AE290E00E94B5
S11301604B0067E08AE290E00E944B0060E084E28A
S113017090E00E944B0008951F93CF93DF93E82FE4
S1130180F0E0EC5FFE4F1081E62FF0E0E050FF4F0F
S1130190D08164E08BE290E00E94570067E08BE23C
S11301A090E00E94570060E085E290E00E945700D2
S11301B085E08A95F1F70000C8E010FD06C060E014
S11301C085E290E00E94570005C060E085E290E07F
S11301D00E94640085E08A95F1F7000067E08BE2F5
S11301E090E00E94640085E08A95F1F7000067E0E2
S11301F08BE290E00E9457001695C150F1F6C8E0DA
S1130200D0FD06C060E085E290E00E94570005C082
S113021060E085E290E00E94640085E08A95F1F751
S1130220000067E08BE290E00E94640085E08A951C
S1130230F1F7000067E08BE290E00E945700D6954A
S1130240C150F1F664E08BE290E00E94640085E026
S11302508A95F1F70000DF91CF911F91089597FBE4
S1130260072E16F4009407D077FD09D00E944301AD
S113027007FC05D03EF4909581959F4F08957095A5
S113028061957F4F0895AA1BBB1B51E107C0AA1FAC
S1130290BB1FA617B70710F0A61BB70B881F991F23
S11302A05A95A9F780959095BC01CD010895F894CD
S10502B0FFCF7A
S10F02B2102040807FBFDFEFF7FBFD0051
S9030000FC
